:100000000C9481000C94A9000C94A9000C94A900F4
:100010000C94A9000C94A9000C94A9000C94A900BC
:100020000C94A9000C94A9000C94A9000C94CC0683
:100030000C94A9000C94A9000C94A9000C94A9009C
:100040000C9482060C94A9000C9476050C9450052F
:100050000C94A9000C94A9000C94A9000C94A9007C
:100060000C94A9000C94A9004E414E494E49545994
:10007000494E46CDCCCC3D0AD7233C17B7D1387773
:10008000CC2B329595E6241FB14F0A000020410089
:1000900000C84200401C4620BCBE4CCA1B0E5AAED3
:1000A000C59D7400000000240027002A0000000005
:1000B00000250028002B0000000000230026002956
:1000C0000004040404040404040202020202020301
:1000D000030303030301020408102040800102040B
:1000E000081020010204081020000000080002018E
:1000F00000000304070000000000000000006A0D7B
:10010000250E11241FBECFEFD8E0DEBFCDBF12E019
:10011000A0E0B1E0E8E4F9E202C005900D92AC3E47
:10012000B107D9F724E0ACEEB2E001C01D92A035D2
:10013000B207E1F710E0C0E8D0E004C02197FE016B
:100140000E949512CF37D107C9F70E94B8070C94C7
:1001500097140C940000009769F0FC0101900020B6
:10016000E9F73197AF01481B590BBC0183E093E0DD
:100170000C948E0780E090E00895FF920F931F93F8
:10018000CF93DF93F82E062FC7E0D0E010E061E0B8
:10019000802F0E94D1058F2D0E94A8050C2E01C032
:1001A000880F0A94EAF7182B60E0802F0E94D1058F
:1001B000219768F7812FDF91CF911F910F91FF90C9
:1001C00008950E9482140F931F93CF93DF93EC0145
:1001D00088819981009729F02A813B81261737076A
:1001E00088F48B016F5F7F4F0E94BC13009761F012
:1001F000998388831B830A832C813D81232B11F4EF
:10020000FC01108281E001C080E0DF91CF911F915D
:100210000F9108950F931F93CF93DF93EC018B0100
:100220000E94E3002881398181110DC0211531051B
:1002300019F0C9010E943313198218821D821C8291
:100240001B821A8207C01D830C836FED72E0C90107
:100250000E949014CE01DF91CF911F910F910895CC
:10026000FC0111821082138212821582148260E0D6
:1002700070E00C940A01E3E0F3E0A089B18982E028
:100280008C93A485B5851C92A685B7858FEC8C933D
:10029000108EA489B58986E08C93A289B3898C914C
:1002A00080618C93A289B3898C9188608C93A28998
:1002B000B3898C9180688C930288F389E02D8081CA
:1002C0008F7D80830895CF93DF930E94AB00EC0174
:1002D0008DED92E00E94AB008C0F9D1FDF91CF91BE
:1002E00008950C94AB00CF92DF92EF92FF92DC0165
:1002F000A03282E0B8070CF03EC0B7FD06C0A53BB7
:10030000B1052CF0A4EBB0E002C0A0E0B0E0809119
:10031000240428E830E06901C81AD10887FDD39485
:10032000CC0CDD1CCC0CDD1C0D2C000CEE08FF08E9
:100330008091250428E532E0281B310987FD33959B
:10034000220F331F220F331FA901330F660B770BC8
:100350009A01AB012C193D094E095F090E94231136
:1003600024EB30E040E050E00E94F910C20ED31EB2
:10037000E41EF51ED601909123049C3098F58091DF
:10038000240448E850E0481B510987FD5395440F69
:10039000551F440F551FA417B5078CF080912504F5
:1003A00028E532E0281B310987FD3395220F331FE2
:1003B000220F331FAD012A173B070CF4A90142504D
:1003C0005109440F551F2FB7F894892F90E0FC0175
:1003D000EE0FFF1F8E0F9F1FFC01EA51FC4F52834F
:1003E00041832FBFFF90EF90DF90CF9008958F92C1
:1003F0009F92AF92BF920F931F93CF93DF93CDB78E
:10040000DEB7A1970FB6F894DEBF0FBECDBF19A21D
:10041000423008F44AE08E010F5D1F4F842E912C6C
:10042000A12CB12CA50194010E94D710E62FB9018F
:10043000CA0101501109EA3014F4E05D01C0E95C21
:10044000D801EC93232B242B252B61F7C8010E94A4
:10045000AB00A1960FB6F894DEBF0FBECDBFDF9103
:10046000CF911F910F91BF90AF909F908F90089563
:10047000CF92DF92EF92FF92CF93DF936B017C01DB
:100480006DE283E093E00E948704EC016627772702
:10049000CB016C197D098E099F094AE00E94F70182
:1004A0008C0F9D1FDF91CF91FF90EF90DF90CF9049
:1004B00008950F931F930E94760660930B03709329
:1004C0000C0380930D0390930E0383E093E00E944E
:1004D000410497FF1FC00E94760600910B03109104
:1004E0000C0320910D0330910E03DC01CB01801B26
:1004F000910BA20BB30B00910703109108032091FD
:10050000090330910A0380179107A207B307E8F2A5
:100510008FEF9FEF1F910F9108958F929F92AF924F
:10052000BF92CF92DF92EF92FF920F931F93CF93E0
:10053000DF936B017C01142F9B01AC010E9484129C
:10054000882319F080EE92E027C046015701E89415
:10055000B7F82FEF3FEF4FE75FE7C501B4010E9407
:10056000841281110DC02FEF3FEF4FE75FE7C50108
:10057000B4010E94B30F18161CF484EE92E00CC074
:100580002FEF3FEF4FE75FE4C701B6010E947F12F4
:10059000181684F488EE92E0DF91CF911F910F91AD
:1005A000FF90EF90DF90CF90BF90AF909F908F9093
:1005B0000C94AB002FEF3FEF4FE75FECC701B601A4
:1005C0000E94B30F87FDE6CF20E030E0A901C7010C
:1005D000B6010E94B30F87FF0BC06DE283E093E08A
:1005E0000E948704EC01F7FAF094F7F8F09402C047
:1005F000C0E0D0E000E060E070E080E09FE3101732
:1006000041F020E030E040E251E40E94DE110F5F53
:10061000F6CFA70196010E9472116B017C010E9426
:1006200050124B015C014AE00E94F701C80FD91F2C
:100630001123B9F1C501B4010E94B80F9B01AC01AF
:10064000C701B6010E9471116B017C016EE283E06B
:1006500093E00E948704C80FD91F20E030E040E2F9
:1006600051E4C701B6010E9419104B015C010E94C0
:1006700050126B01E12CF12C4AE0C701B6010E9437
:10068000F701C80FD91FC701B6010E94B80F9B011F
:10069000AC01C501B4010E9471116B017C011150C4
:1006A000E1F6CE01DF91CF911F910F91FF90EF9076
:1006B000DF90CF90BF90AF909F908F900895CF9292
:1006C000DF92EF92FF920F931F93CF93DF93EC0192
:1006D0008B810E94A805892B31F060E070E0CB018E
:1006E0000E943C06F5CFEFB6F8946A818B810E9498
:1006F000BD00082F6A818B810E94BD00182F6A817E
:100700008B810E94BD00F82EC12CD12C8C8190E0F1
:10071000C816D90660F461E08A810E94D10560E0C4
:100720008A810E94D1052FEFC21AD20AEFCFEFBE05
:10073000812F90E0A0E0B0E0BA2FA92F982F882752
:10074000A02BAC01BD014F29802F880F880B90E0B2
:10075000A0E0B0E0B82FAA27992788278A019B013B
:10076000082B192B2A2B3B2BC901B801DF91CF9104
:100770001F910F91FF90EF90DF90CF900895CF934E
:10078000DF93EC0160E070E00E940A01CE01DF918E
:10079000CF910895CF93DF93FC014481558160810F
:1007A000718183E093E00E948E07EC018DED92E071
:1007B0000E94AB008C0F9D1FDF91CF910895FC012B
:1007C00080819181009711F00C943D0E60E070E003
:1007D000CB010895EF92FF920F931F93CF93DF9376
:1007E00000D0CDB7DEB78C0169831A82FC01E480AA
:1007F000F580FFEFEF1AFF0AB7010E94E30088239C
:1008000081F0F8012081318184819581BE016F5F83
:100810007F4F820F931F0E949014F801F582E482AB
:1008200081E00F900F90DF91CF911F910F91FF907A
:10083000EF900895089580E090E00895FC01538DB5
:10084000448D252F30E0842F90E0821B930B5417AA
:1008500010F0CF96089501970895FC01918D828D37
:10086000981761F0828DDF01A80FB11D5D968C9104
:10087000928D9F5F9F73928F90E008958FEF9FEF0F
:100880000895FC01918D828D981731F0828DE80FCB
:10089000F11D858D90E008958FEF9FEF0895FC0185
:1008A000918D228D892F90E0805C9F4F821B910952
:1008B0008F739927089583E093E00E944F0421E00D
:1008C000892B09F420E0822F0895FC01848DDF013B
:1008D000A80FB11DA35ABF4F2C91848D90E00196B3
:1008E0008F739927848FA689B7892C93A089B189A2
:1008F0008C91837080648C93938D848D981306C043
:100900000288F389E02D80818F7D80830895EF92A6
:10091000FF920F931F93CF93DF93EC0181E0888FB9
:100920009B8D8C8D981305C0E889F989808185FDA0
:1009300026C0F62E0B8D10E00F5F1F4F0F7311278F
:10094000E02E8C8DE8120CC00FB607FCFACFE889B8
:10095000F989808185FFF5CFCE010E946504F1CF32
:100960008B8DFE01E80FF11DE35AFF4FF0829FB718
:10097000F8940B8FEA89FB89808180620AC09FB757
:10098000F894EE89FF896083E889F9898081837012
:10099000806480839FBF81E090E0DF91CF911F91C1
:1009A0000F91FF90EF900895CF93DF93EC01888D26
:1009B0008823C9F0EA89FB89808185FD05C0A88963
:1009C000B9898C9186FD0FC00FB607FCF5CF8081E9
:1009D00085FFF2CFA889B9898C9185FFEDCFCE0133
:1009E0000E946504E7CFDF91CF91089580E090E009
:1009F000892B29F00E945B0481110C94000008955A
:100A0000833081F028F4813099F08230A1F008958C
:100A10008730A9F08830B9F08430D1F4809180001B
:100A20008F7D03C0809180008F7780938000089530
:100A300084B58F7702C084B58F7D84BD0895809181
:100A4000B0008F7703C08091B0008F7D8093B0009D
:100A500008953FB7F8948091460490914704A0917F
:100A60004804B091490426B5A89B05C02F3F19F052
:100A70000196A11DB11D3FBFBA2FA92F982F88271E
:100A8000820F911DA11DB11DBC01CD0142E0660F79
:100A9000771F881F991F4A95D1F708950C94331337
:100AA0001F920F920FB60F9211242F933F934F93E3
:100AB0005F936F937F938F939F93AF93BF93EF93C6
:100AC000FF9383E093E00E946504FF91EF91BF9153
:100AD000AF919F918F917F916F915F914F913F91D6
:100AE0002F910F900FBE0F901F9018951F920F928D
:100AF0000FB60F9211242F938F939F93EF93FF9331
:100B0000E0911303F09114038081E0911903F091B7
:100B10001A0382FD12C0908180911C038F5F8F7336
:100B200020911D03821751F0E0911C03F0E0ED5F6E
:100B3000FC4F958F80931C0301C08081FF91EF9142
:100B40009F918F912F910F900FBE0F901F9018952E
:100B5000CF93DF93282F30E0F901E751FF4F8491C5
:100B6000F901EB52FF4FD491F901EF53FF4FC491BC
:100B7000CC2391F081110E940005EC2FF0E0EE0FE4
:100B8000FF1FE954FF4FA591B491EC91ED2381E053
:100B900090E021F480E002C080E090E0DF91CF910E
:100BA00008951F93CF93DF93282F30E0F901E75189
:100BB000FF4F8491F901EB52FF4FD491F901EF53AC
:100BC000FF4FC491CC23C1F0162F81110E94000564
:100BD000EC2FF0E0EE0FFF1FE355FF4FA591B4910E
:100BE0009FB7F894111104C08C91D095D82302C0FE
:100BF000EC91DE2BDC939FBFDF91CF911F91089585
:100C0000CF93DF9390E0FC01EB52FF4F2491FC0166
:100C1000EF53FF4F8491882361F190E0880F991F73
:100C2000FC01ED55FF4FC591D491FC01E355FF4FF9
:100C3000A591B491611109C09FB7F894888120955E
:100C400082238883EC912E230BC0623061F49FB71E
:100C5000F8948881322F309583238883EC912E2B52
:100C60002C939FBF06C08FB7F894E8812E2B288362
:100C70008FBFDF91CF9108958F929F92AF92BF92D5
:100C8000CF92DF92EF92FF926B017C010E942905C7
:100C90004B015C01C114D104E104F104F1F00E94A4
:100CA0002905DC01CB0188199909AA09BB09883EED
:100CB0009340A105B10570F321E0C21AD108E10803
:100CC000F10888EE880E83E0981EA11CB11CC114A7
:100CD000D104E104F10419F7DDCFFF90EF90DF902C
:100CE000CF90BF90AF909F908F9008952FB7F894BA
:100CF00060914204709143048091440490914504B2
:100D00002FBF08951F920F920FB60F9211242F93A9
:100D10003F938F939F93AF93BF93809142049091A1
:100D20004304A0914404B09145043091410423E070
:100D3000230F2D3720F40196A11DB11D05C026E813
:100D4000230F0296A11DB11D2093410480934204FC
:100D500090934304A0934404B093450480914604C7
:100D600090914704A0914804B09149040196A11DB7
:100D7000B11D8093460490934704A0934804B09318
:100D80004904BF91AF919F918F913F912F910F9007
:100D90000FBE0F901F9018951F920F920FB60F92D3
:100DA00011242F933F934F935F936F937F938F9370
:100DB0009F93AF93BF93EF93FF938091400487FF7E
:100DC00005C010928500109284001BC02091400441
:100DD000022E000C330B80910A0490E0281739078B
:100DE00084F480914004082E000C990BFC01EE0F56
:100DF000FF1F8E0F9F1FFC01EA51FC4F808186FD73
:100E000015C0809140048F5F80934004209140047E
:100E1000022E000C330B80910A0490E0281739074A
:100E2000C4F4809140048C3064F113C0809140047C
:100E3000082E000C990BFC01EE0FFF1F8E0F9F1F59
:100E4000FC01EA51FC4F808160E08F730E94D10564
:100E5000D8CF8091840090918500049680349C497D
:100E600018F480E49CE905C080918400909185008D
:100E7000049690938900809388008FEF80934004BC
:100E80003BC0209184003091850080914004082E61
:100E9000000C990BFC01EE0FFF1F8E0F9F1FFC0132
:100EA000EA51FC4F81819281820F931F90938900B8
:100EB0008093880080914004082E000C990BFC015F
:100EC000EE0FFF1F8E0F9F1FFC01EA51FC4F808128
:100ED00086FF12C080914004082E000C990BFC0183
:100EE000EE0FFF1F8E0F9F1FFC01EA51FC4F808108
:100EF00061E08F730E94D105FF91EF91BF91AF9197
:100F00009F918F917F916F915F914F913F912F9121
:100F10000F900FBE0F901F9018950895CF92DF92FB
:100F2000EF92FF920F931F93CF93DF936C017A019F
:100F30008B01C0E0D0E0CE15DF0581F0D8016D91C6
:100F40008D01D601ED91FC910190F081E02DC6015B
:100F50000995892B11F02196EECF7E01C701DF9113
:100F6000CF911F910F91FF90EF90DF90CF90089558
:100F7000789484B5826084BD84B5816084BD85B574
:100F8000826085BD85B5816085BD80916E00816080
:100F900080936E0010928100809181008260809326
:100FA0008100809181008160809381008091800028
:100FB0008160809380008091B10084608093B10053
:100FC0008091B00081608093B00080917A0084604D
:100FD00080937A0080917A00826080937A00809179
:100FE0007A00816080937A0080917A008068809393
:100FF0007A001092C1001092E2031092E303109263
:10100000E4031092E5031092A2031092A30310923E
:10101000A4031092A5030E9476066B017C014B018C
:101020005C0128EB820E2BE0921EA11CB11C0E94D9
:1010300076066C157D058E059F0528F086169706A9
:10104000A806B906A0F760ED77E080E090E00E9486
:101050003C060E943B010E9476066093A2037093B7
:10106000A3038093A4039093A50380E291E00E94E0
:1010700071010E9476066B017C014B015C013AE034
:10108000830E911CA11CB11C0E9476066C157D0577
:101090008E059F0528F086169706A806B906A0F7C4
:1010A000C1E0C093B6030E943B0183E08093350406
:1010B00082E08093360461E083E00E94000660E0F5
:1010C000809136040E940006C093370460E080914E
:1010D00035040E94D10583E394E00E945F0385E01C
:1010E0008093280484E08093290461E085E00E94D5
:1010F000000660E0809129040E940006C0932A0443
:1011000060E0809128040E94D10586E294E00E946C
:101110005F03809123048C3008F051C061E089E0C6
:101120000E94000680912304E82FF0E09F01220F27
:10113000331FE20FF31FEA51FC4F9081907C9960BE
:10114000908310922404109225046CE00E9489126E
:101150004CE0849FB001112440E050E09B01240F3B
:10116000351FF901EE0FFF1F2E0F3F1FF901EA5146
:10117000FC4F908196FD16C04F5F5F4F4C3051057C
:1011800069F781110FC01092800082E08093810086
:101190001092850010928400B19A80916F00826055
:1011A00080936F00E0912304F0E0CF01880F991F36
:1011B000E80FF91FEA51FC4F8081806480838DE243
:1011C00090E00E94730160E070E0CB010E943C0659
:1011D00082E391E00E9463018EE391E00E9463014B
:1011E0008CE491E00E94630168EE73E080E090E09F
:1011F0000E943C0686E691E00E94630183E093E052
:101200000E944F0418161906CCF783E093E00E9461
:101210002D048093EC028091EC02813509F041C1EC
:1012200089E791E00E94630168EE73E080E090E05E
:101230000E943C0683E093E00E944F0418161906B2
:10124000CCF783E394E00E945F036B017C0189EC9F
:1012500091E00E94630183E093E00E942D0497FFD8
:10126000FACF88E991E00E94630183E093E00E9455
:101270004F0418161906CCF783E394E00E945F032D
:10128000A7019601261B370B480B590BCA01B90160
:101290000E94BA0F9B01AC0160E070E080E291E433
:1012A0000E94DE116093F7027093F8028093F902B6
:1012B0009093FA0289EC91E00E94630183E093E04D
:1012C0000E942D0497FFFACF8BEA91E00E94630100
:1012D00083E093E00E944F0418161906CCF783E3CD
:1012E00094E00E945F030E94BA0F6093FB02709328
:1012F000FC028093FD029093FE028FEB91E00E942E
:10130000630183E093E00E942D0497FFFACF68EE1B
:1013100073E080E090E00E943C0682ED91E00E9444
:10132000630168EE73E080E090E00E943C0683E099
:1013300093E00E944F0418161906CCF786E294E059
:101340000E945F036B017C0189EC91E00E946301C4
:1013500083E093E00E942D0497FFFACF88E991E0A3
:101360000E94630183E093E00E944F04181619065F
:10137000CCF786E294E00E945F03A7019601261B4A
:10138000370B480B590BCA01B9010E94BA0F9B01D8
:10139000AC0160E070E080E291E40E94DE116093B5
:1013A000EF027093F0028093F1029093F20289ECC5
:1013B00091E00E94630183E093E00E942D0497FF77
:1013C000FACF8BEA91E00E94630183E093E00E94F0
:1013D0004F0418161906CCF786E294E00E945F03CA
:1013E0000E94BA0F6093F3027093F4028093F502A7
:1013F0009093F60285EE91E00E94630183E093E012
:101400000E942D0497FFFACF68EE73E080E090E031
:101410000E943C0688EF91E00E9471016091F70202
:101420007091F8028091F9029091FA0242E00E94D4
:101430008D028DEF91E00E9471016091EF02709139
:10144000F0028091F1029091F20242E00E948D023E
:1014500082E092E00E9471016091FB027091FC02B7
:101460008091FD029091FE0242E00E948D0288E090
:1014700092E00E9471016091F3027091F4028091F8
:10148000F5029091F60242E00E948D028DED92E00D
:101490000E94710184EF882E99249394A12CB12C81
:1014A00089C18091EC028235A9F78EE092E00E941A
:1014B000630183E093E00E944F0418161906CCF7ED
:1014C00083E093E00E944F041816190684F483E029
:1014D00093E00E942D04682F8DE194E00E94EA03BE
:1014E00062E070E080E090E00E943C06E9CF8091ED
:1014F000210490912204892B61F086E292E00E94FF
:1015000071018DE194E00E94CA038DE194E00E9494
:10151000BF0383E093E00E942D0497FFFACF83E09E
:1015200093E00E944F0418161906CCF783E093E06D
:101530000E944F041816190684F483E093E00E9479
:101540002D04682F87E194E00E94EA0362E070E0D6
:1015500080E090E00E943C06E9CF80911B049091CE
:101560001C04892B61F08AE292E00E94710187E1FC
:1015700094E00E94CA0387E194E00E94BF0383E0E5
:1015800093E00E942D0497FFFACF83E093E00E943E
:101590004F0418161906CCF783E093E00E944F041D
:1015A0001816190684F483E093E00E942D04682F36
:1015B00081E194E00E94EA0362E070E080E090E064
:1015C0000E943C06E9CF8091150490911604892B66
:1015D00061F08EE292E00E94710181E194E00E944C
:1015E000CA0381E194E00E94BF0383E093E00E947C
:1015F0002D0497FFFACF83E093E00E944F04181662
:101600001906CCF783E093E00E944F0418161906E0
:1016100084F483E093E00E942D04682F8BE094E033
:101620000E94EA0362E070E080E090E00E943C06E5
:10163000E9CF80910F0490911004892B61F085E32C
:1016400092E00E9471018BE094E00E94CA038BE05B
:1016500094E00E94BF0383E093E00E942D0497FF73
:10166000FACF8DE194E00E94DF036093F70270935C
:10167000F8028093F9029093FA0287E194E00E94C5
:10168000DF036093EF027093F0028093F102909376
:10169000F20281E194E00E94DF036093FB02709309
:1016A000FC028093FD029093FE0281E194E00E948F
:1016B000DF036093F3027093F4028093F50290933A
:1016C000F602E8CE0E94760662307105810591052A
:1016D00008F0A3C083E093E00E944F041816190697
:1016E0000CF47BC0809136040E94A805892B09F078
:1016F0008EC083E394E00E945F030E94BA0F2091A2
:10170000FB023091FC024091FD025091FE020E94CA
:1017100071112091F7023091F8024091F902509135
:10172000FA020E9419106B017C018CE692E00E9483
:10173000710142E0C701B6010E948D028FE792E07D
:101740000E946301809129040E94A805892B09F059
:1017500061C086E294E00E945F030E94BA0F20916C
:10176000F3023091F4024091F5025091F6020E948A
:1017700071112091EF023091F0024091F1025091ED
:10178000F2020E9419106B017C0187E992E00E942D
:10179000710142E0C701B6010E948D028FE792E01D
:1017A0000E94630168EE73E080E090E00E943C06D6
:1017B0000E94F6040E947606672B682B692B69F558
:1017C00081CF8D32910509F40DC1C0970A9708F4B5
:1017D00009C183E093E00E942D040E945902FC019C
:1017E00097FFEFCFC12CD12C7601D092EE02C092A0
:1017F000ED028091ED029091EE0297FD2FC1809154
:10180000ED029091EE028E970CF435C127C183E86A
:1018100092E096CF8AEA92E0C3CF0E947606C0900B
:10182000FF02D0900003E0900103F09002036C15DA
:101830007D058E059F0540F46093FF0270930003C1
:101840008093010390930203C090FF02D0900003A5
:10185000E0900103F09002039B01AC012C193D09BB
:101860004E095F0969017A013AEFC316D104E10418
:10187000F10408F42FCF6093FF027093000380936C
:101880000103909302038092AE039092AF03A09263
:10189000B003B092B1031092B2031092B30310924E
:1018A000B4031092B5038091A6039091A703A09171
:1018B000A803B091A9038093AA039093AB03A093CC
:1018C000AC03B093AD030E9476066093A6037093B9
:1018D000A7038093A8039093A9030E9476066093C0
:1018E000A2037093A3038093A4039093A5030E9483
:1018F00076066B017C018CE392E00E9471014AE064
:1019000061E070E080E090E00E94F70183E492E003
:101910000E9471014AE0C701B6010E94F70185E407
:1019200092E00E9471018091A6039091A703A0917B
:10193000A803B091A903A7019601281B390B4A0BF4
:101940005B0BCA01B9014AE00E94F70185E492E00D
:101950000E9471018091A6039091A703A091A80312
:10196000B091A903C090AA03D090AB03E090AC0360
:10197000F090AD03BC01CD016C197D098E099F0962
:101980004AE00E94F70187E492E00E9471010E9400
:1019900076064AE00E94F70189E492E00E94630122
:1019A0000E9476066B017C012B013C0132E0430E64
:1019B000511C611C711C0E9476066C157D058E05FC
:1019C0009F0528F04616570668067906A0F70E947C
:1019D00076066093A6037093A7038093A803909361
:1019E000A90378CEC12CD12C7601C0E0E130F105FD
:1019F000E1F0ED32F105C1F0CF01C0970A97A8F4EC
:101A0000AAE0B0E0A70196010E9418116F01FF0F34
:101A1000EE08FF08C60ED71EE81EF91E40E3C41AE2
:101A2000D108E108F10801C0C1E083E093E00E9421
:101A30002D040E945902FC01C0970A97B8F2E130C8
:101A4000F105A1F2CC2309F4D0CEF094E094D09427
:101A5000C094C11CD11CE11CF11CC7CE8091ED02C9
:101A60009091EE02833D9F4F84F18091ED02909121
:101A7000EE0297FF2AC06091ED027091EE02072EF0
:101A8000000C880B990B97FF03C00E94380203C01B
:101A90004AE00E94F70180E592E00E946301809194
:101AA000ED029091EE028D969093EE028093ED02FE
:101AB0008091ED029091EE020E9473016FE070E060
:101AC00080E090E00E943C0605CE8EEB92E00E9402
:101AD000710100CE109206031092050388EE93E088
:101AE000A0E0B0E08093070390930803A09309035C
:101AF000B0930A038AE091E0909304038093030378
:101B000085EC90E09093100380930F0384EC90E0B9
:101B1000909312038093110380EC90E09093140350
:101B20008093130381EC90E0909316038093150348
:101B300082EC90E0909318038093170386EC90E07A
:101B400090931A038093190310921C0310921D03A3
:101B500010921E0310921F031092A6031092A70367
:101B60001092A8031092A9031092AA031092AB033B
:101B70001092AC031092AD031092AE031092AF031B
:101B80001092B0031092B1031092B2031092B303FB
:101B90001092B4031092B5032CE131E03093340479
:101BA00020933304109238041092390410923A04AE
:101BB00010923B0480E090E0A0E8BFE380933C04F7
:101BC00090933D04A0933E04B0933F0430932704C8
:101BD0002093260410922B0410922C0410922D04B2
:101BE00010922E0480932F0490933004A09331041C
:101BF000B093320480910A048C30A0F491E0980FE5
:101C000090930A048093230490E0FC01EE0FFF1FE1
:101C10008E0F9F1FFC01EA51FC4F88EB9BE09283E3
:101C2000818303C08FEF809323048DE194E00E94B1
:101C3000300187E194E00E94300181E194E00E944C
:101C400030018BE094E00C94300180910B04909172
:101C50000C040E94331380911104909112040E948D
:101C6000331380911704909118040E9433138091CC
:101C70001D0490911E040C943313662777270C944F
:101C80004A0E91110C94980F803219F089508550AA
:101C9000C8F70895A0E0B0E0E0E5FEE00C94311153
:101CA000EC016B016115710519F0FB0191838083D3
:101CB0007E01FFEFEF1AFF0A0881802F90E00E945B
:101CC000410E892B11F0E701F3CF0D3239F47E017B
:101CD00082E0E80EF11C098111E008C00B3229F402
:101CE0007E0192E0E90EF11C098110E0E7012197E5
:101CF00043E050E060E770E0CE010E949B0F892B2B
:101D0000C1F4239645E050E06BE670E0CE010E94FE
:101D10009B0F892B09F42596C114D10419F0F60103
:101D2000D183C0831111F6C060E070E080E89FE7C6
:101D3000FAC043E050E068E670E0CE010E949B0FDD
:101D4000892B59F4C114D10409F4E9C0F2E0EF0E73
:101D5000F11CF601F182E082E2C020E030E0A9014E
:101D6000C0E0D0E0F70180EDA82EA00E89E08A1532
:101D700030F1912F9260B92E812F887012FF04C02C
:101D8000811124C0219622C081112197A5E0B0E0E5
:101D90000E941811DC01CB01880F991FAA1FBB1FDD
:101DA0009C01AD012A0D311D411D511D283989E9C4
:101DB0003807480789E1580748F0166006C09EEFCB
:101DC000A9120AC013FD40C01860B12E8FEFE81AA7
:101DD000F80A00811B2DC6CF802F8F7D8534A1F599
:101DE00080818D3211F4106106C08B3221F0319662
:101DF00061E070E004C08181329662E070E080535F
:101E00008A3018F0E61BF70B1FC060E070E0603806
:101E10009CE079075CF4DB01AA0FBB1FAA0FBB1F74
:101E20006A0F7B1F660F771F680F711D3196DF01E8
:101E300011978C9180538A3050F314FF03C0719531
:101E400061957109C60FD71F11FF08C0C114D104D5
:101E500029F0CF010197F60191838083CA01B9016E
:101E60000E94B80F212F2370233019F04B015C0121
:101E700006C04B015C01B7FAB094B7F8B09420E00B
:101E800030E0A901C501B4010E94B30F882309F411
:101E90003EC0D7FF06C0D195C195D10907E810E033
:101EA00002C00FE910E06801F8E1CF1AD10890E212
:101EB000E92EF12CCE15DF0574F0F801259135914E
:101EC00045915491C501B4010E9419104B015C0168
:101ED000CE19DF09EFCF04501109F594E7940C15E2
:101EE0001D0541F78A2D880F8B2D881F8F3F49F0E4
:101EF00020E030E0A901C501B4010E94B30F8111B7
:101F000006C082E290E090934B0480934A04C5019E
:101F1000B40109C060E070E080E89FEF04C060E0B9
:101F200070E080EC9FE7CDB7DEB7ECE00C944D118C
:101F3000992788270895FB01DC014150504088F023
:101F40008D9181341CF08B350CF4805E6591613489
:101F50001CF06B350CF4605E861B611171F3990BFC
:101F60000895881BFCCF0E94F50F08F481E00895C6
:101F7000E89409C097FB3EF4909580957095619523
:101F80007F4F8F4F9F4F9923A9F0F92F96E9BB27D9
:101F90009395F695879577956795B795F111F8CF55
:101FA000FAF4BB0F11F460FF1BC06F5F7F4F8F4FC0
:101FB0009F4F16C0882311F096E911C0772321F0B6
:101FC0009EE8872F762F05C0662371F096E8862F4E
:101FD00070E060E02AF09A95660F771F881FDAF7A5
:101FE000880F9695879597F90895990F0008550FD2
:101FF000AA0BE0E8FEEF16161706E807F907C0F08F
:1020000012161306E407F50798F0621B730B840B96
:10201000950B39F40A2661F0232B242B252B21F470
:1020200008950A2609F4A140A6958FEF811D811D10
:1020300008950E942C100C949D100E948F1038F06F
:102040000E94961020F0952311F00C9486100C94A9
:102050008C1011240C94D1100E94AE1070F3959F37
:10206000C1F3950F50E0551F629FF001729FBB278F
:10207000F00DB11D639FAA27F00DB11DAA1F649F2B
:102080006627B00DA11D661F829F2227B00DA11DDE
:10209000621F739FB00DA11D621F839FA00D611D64
:1020A000221F749F3327A00D611D231F849F600D85
:1020B000211D822F762F6A2F11249F5750409AF0AE
:1020C000F1F088234AF0EE0FFF1FBB1F661F771F3A
:1020D000881F91505040A9F79E3F510580F00C9405
:1020E00086100C94D1105F3FE4F3983ED4F38695AC
:1020F00077956795B795F795E7959F5FC1F7FE2BA5
:10210000880F911D9695879597F9089597F99F6780
:1021100080E870E060E008959FEF80EC089500246F
:102120000A941616170618060906089500240A943C
:1021300012161306140605060895092E0394000CC2
:1021400011F4882352F0BB0F40F4BF2B11F460FF51
:1021500004C06F5F7F4F8F4F9F4F089557FD90587A
:10216000440F551F59F05F3F71F04795880F97FB5B
:10217000991F61F09F3F79F0879508951216130615
:102180001406551FF2CF4695F1DF08C01616170644
:102190001806991FF1CF8695710561050894089579
:1021A000E894BB2766277727CB0197F90895A1E22A
:1021B0001A2EAA1BBB1BFD010DC0AA1FBB1FEE1FC1
:1021C000FF1FA217B307E407F50720F0A21BB30B0C
:1021D000E40BF50B661F771F881F991F1A9469F788
:1021E00060957095809590959B01AC01BD01CF01E4
:1021F0000895052E97FB1EF400940E94101157FDC0
:1022000007D00E94D71007FC03D04EF40C94101195
:1022100050954095309521953F4F4F4F5F4F089512
:1022200090958095709561957F4F8F4F9F4F089542
:102230000E946211A59F900DB49F900DA49F800DE8
:10224000911D11240895B7FF0C9418110E941811C4
:10225000821B930B08952F923F924F925F926F9241
:102260007F928F929F92AF92BF92CF92DF92EF9226
:10227000FF920F931F93CF93DF93CDB7DEB7CA1BA7
:10228000DB0B0FB6F894DEBF0FBECDBF09942A88D2
:10229000398848885F846E847D848C849B84AA847A
:1022A000B984C884DF80EE80FD800C811B81AA8107
:1022B000B981CE0FD11D0FB6F894DEBF0FBECDBFD2
:1022C000ED010895A29FB001B39FC001A39F700DBF
:1022D000811D1124911DB29F700D811D1124911D2E
:1022E00008955058BB27AA270E9489110C949D106D
:1022F0000E948F1038F00E94961020F039F49F3F12
:1023000019F426F40C948C100EF4E095E7FB0C9471
:102310008610E92F0E94AE1058F3BA1762077307B0
:102320008407950720F079F4A6F50C94D0100EF4EC
:10233000E0950B2EBA2FA02D0B01B90190010C01D5
:10234000CA01A0011124FF27591B99F0593F50F4ED
:10235000503E68F11A16F040A22F232F342F442745
:10236000585FF3CF469537952795A795F04053953D
:10237000C9F77EF41F16BA0B620B730B840BBAF00D
:102380009150A1F0FF0FBB1F661F771F881FC2F778
:102390000EC0BA0F621F731F841F48F4879577958C
:1023A0006795B795F7959E3F08F0B0CF9395880F46
:1023B00008F09927EE0F9795879508950E94F211DE
:1023C0000C949D100E94961058F00E948F1040F0BF
:1023D00029F45F3F29F00C94861051110C94D11010
:1023E0000C948C100E94AE1068F39923B1F355231E
:1023F00091F3951B550BBB27AA2762177307840718
:1024000038F09F5F5F4F220F331F441FAA1FA9F3AD
:1024100035D00E2E3AF0E0E832D091505040E6959B
:10242000001CCAF72BD0FE2F29D0660F771F881FFC
:10243000BB1F261737074807AB07B0E809F0BB0BEF
:10244000802DBF01FF2793585F4F3AF09E3F510503
:1024500078F00C9486100C94D1105F3FE4F3983E12
:10246000D4F3869577956795B795F7959F5FC9F7EC
:10247000880F911D9695879597F90895E1E0660F6D
:10248000771F881FBB1F621773078407BA0720F0E6
:10249000621B730B840BBA0BEE1F88F7E09508954F
:1024A0000E94B61088F09F5798F0B92F9927B7511E
:1024B000B0F0E1F0660F771F881F991F1AF0BA95E8
:1024C000C9F714C0B13091F00E94D010B1E0089566
:1024D0000C94D010672F782F8827B85F39F0B93F58
:1024E000CCF3869577956795B395D9F73EF490959B
:1024F0008095709561957F4F8F4F9F4F08950E94F3
:10250000F50F08F48FEF08950E94F50F880B990BD3
:102510000895991B79E004C0991F961708F0961B3F
:10252000881F7A95C9F780950895EE0FFF1F0590D3
:10253000F491E02D09940F931F93CF93DF93823092
:10254000910510F482E090E0E0914E04F0914F0488
:1025500020E030E0A0E0B0E0309719F140815181F7
:102560000281138148175907C8F08417950769F449
:10257000109731F012960C93129713961C9327C064
:1025800000934E0410934F0422C02115310519F019
:102590004217530718F49A01BD01EF01DF01F8015A
:1025A000DBCF21153105F9F0281B390B243031051B
:1025B00080F48A819B816115710521F0FB01938371
:1025C000828304C090934F0480934E04FE013296A0
:1025D00044C0FE01E20FF31F819391932250310911
:1025E000398328833AC020914C0430914D04232B29
:1025F00041F4209102013091030130934D04209366
:102600004C0420910001309101012115310541F464
:102610002DB73EB74091040150910501241B350BA5
:10262000E0914C04F0914D04E217F307A0F42E1B47
:102630003F0B2817390778F0AC014E5F5F4F241726
:10264000350748F04E0F5F1F50934D0440934C04E4
:102650008193919302C0E0E0F0E0CF01DF91CF9150
:102660001F910F910895CF93DF93009709F481C0D4
:10267000FC01329713821282A0914E04B0914F0454
:10268000109781F420813181820F931F20914C0497
:1026900030914D042817390751F5F0934D04E0931C
:1026A0004C0467C0ED0120E030E0CE17DF0740F4B6
:1026B0004A815B819E0141155105F1F0EA01F5CF98
:1026C000D383C28340815181840F951FC817D907D6
:1026D00059F488819981840F951F02969183808394
:1026E0008A819B81938382832115310529F4F0939C
:1026F0004F04E0934E043DC0E901FB83EA83499116
:102700005991C40FD51FEC17FD0761F480819181A9
:10271000840F951F0296E9019983888382819381B2
:102720009B838A83E0E0F0E012968D919C91139751
:10273000009719F0FD01DC01F7CF8D919C91119765
:102740009D012E5F3F4F820F931F20914C043091CB
:102750004D042817390769F4309729F410924F0473
:1027600010924E0402C013821282B0934D04A093C3
:102770004C04DF91CF910895A0E0B0E0E2ECF3E1EA
:102780000C942F11EC01009721F4CB010E949B12B5
:10279000B4C0FC01E60FF71F9C0122503109E2177B
:1027A000F30708F4A8C0D9010D911C9111970617E1
:1027B0001707B0F00530110508F49BC0C801049755
:1027C0008617970708F495C002501109061B170BCE
:1027D000019311936D937C93CF010E94331389C0B1
:1027E0005B01A01AB10A4C01800E911EA0914E040B
:1027F000B0914F04612C712CE12CF12C109709F44D
:1028000046C08D919C911197A815B905B1F56C0141
:1028100042E0C40ED11CCA14DB0478F14C018A18C2
:102820009B08640142E0C40ED11C1296BC90129722
:102830001396AC91B5E0CB16D10440F0B282A383DD
:1028400091828082D9016D937C9309C00E5F1F4FE6
:10285000800F911FF90191838083EB2DFA2FE114F2
:10286000F10431F0D7011396FC93EE93129741C017
:10287000F0934F04E0934E043CC06816790608F4C8
:102880003C017D0112960D90BC91A02DB7CF809197
:102890004C0490914D0488169906E1F4661677066B
:1028A000C8F48091000190910101009741F48DB727
:1028B0009EB74091040150910501841B950BE817C8
:1028C000F907C8F4F0934D04E0934C04F9017183C7
:1028D00060830FC0CB010E949B127C01009759F0CE
:1028E000A801BE010E948714CE010E943313C701C4
:1028F00004C0CE0102C080E090E0CDB7DEB7EEE0CC
:102900000C944B1181E090E0F8940C949714FB0127
:10291000DC0102C001900D9241505040D8F708955B
:10292000FB01DC0101900D920020E1F7089510E019
:10293000C0E8D0E004C0FE010E9495122196C13883
:08294000D107C9F7F894FFCF9D
:102948000000500480000000000087048E071E0469
:10295800D4044F042D044104000000008D074E05E7
:10296800564D4450565F317C315F564D4450560D9C
:102978000A0048656C6C6F2C576F726C6400577254
:10298800697474656E20627920485100436F6D70D8
:102998006C6574696F6E2074696D653A32303139CF
:1029A8002E372E3136004E6565642063616C69628E
:1029B800726174696F6E3F2000506C6163652074AA
:1029C800776F2031306720776569676874732C20CA
:1029D800706C656173652E00706C6561736520733A
:1029E8006574206F6E652031306700706C656173A7
:1029F8006520736574207A65726F203130670058DE
:102A08005F61786973206973207375636365737395
:102A18002100706C65617365207365742074776F2D
:102A28002031306700595F617869732069732073BA
:102A380075636365737321004B5F583D004B5F59A5
:102A48003D00454E565F5800454E565F5900466F4B
:102A5800727468636F6D696E672061737369676EFE
:102A68006D656E7420006B783D006B793D00656E76
:102A7800765F783D00656E765F793D00564D44502F
:102A8800455F003A323A007C005F564D445045009D
:102A98005F5F5F5F5F5F5F5F5F5F5F5F5F5F5F5F3E
:102AA8005F5F5F5F5F5F5F5F5F5F5F00585F617879
:102AB8006973202072656164696E673A092000674E
:102AC8000D0A00585F61786973206E6F7420666F15
:102AD800756E642E0D0A00595F6178697320207243
:102AE800656164696E673A092000595F61786973A6
:102AF800206E6F7420666F756E642E0D0A00506C20
:102B08006561736520656E746572207468652063FD
:102B18006F72726563742072616E6765200D0A00BA
:0C2B28006E616E00696E66006F766600DC
:00000001FF
